:020000020000FC
:100000000FEF0DBF08E00EBF0FE104B906E008B91D
:1000100006B1009302010CEF0AB901E007B900270D
:100020000093000100930101009303010093040178
:10003000009305010E9444001127222733274427FB
:1000400002E004BD03E005BD0CE707BD02E005BB0F
:100050000E9438000E94DE0000FF03C00E94CB0017
:1000600004C001FF02C00E94D4000E947D00F0CFB6
:1000700005B301FF08C002E005BB4395443619F4FF
:1000800044270E9456000895009100010F701091BE
:1000900005011071012B05B9089500910001039528
:1000A0000F70009300010E94440008950091040124
:1000B00003950A30F9F400270F930E944D000F9129
:1000C0001091030113951F701093030120910101FA
:1000D000121769F41127109303013091050160E1B3
:1000E0003627309305010F930E9444000F9100932F
:1000F0000401089500930401089520910101203026
:10010000E9F02130E9F02230E9F02330E9F0243041
:10011000E9F02530E9F02630E9F02730E9F0283021
:10012000E9F02930E9F02A30E9F02B30E9F02C3001
:10013000E9F02D30E9F02E30E9F01EC000EC1EC0D1
:1001400009EF1CC004EA1AC000EB18C009E916C088
:1001500002E914C002E812C008EF10C000E80EC0A7
:1001600000E90CC008E80AC003E808C006EC06C0B5
:1001700001EA04C006E802C00EE800C006FF40988D
:1001800006FD409A2BB12370302F3F73330F330F8E
:10019000232B2BB90895209101012395203108F0DC
:1001A000222720930101089520910101222311F4B7
:1001B0002FE001C02A9520930101089526B13091C6
:1001C0000201002731FF03C021FD01C0016032FFA1
:0E01D00003C022FD01C00260209302010895C9
:00000001FF
