:020000020000FC
:020000001CC022
:1000380048C00FEF0DBF08E00EBF00270093030173
:100048000093040100270093000102E200930101DC
:100058000CE00093020100930501009306013D9A0C
:10006800459A002700930701009308010FE00093C9
:100078000901002700930A01002700930B010CEFE8
:100088000AB90FE104B90CEF0BB90FE138983998A8
:100098003A983B98409A419A429A439A509A58986B
:1000A80000E004BD02E004BD0AEF07BD002706BD5D
:1000B80002E000936E0003E005BD789445D0E8D0D7
:1000C800FDCF0F931F930FB70F930091030110916A
:1000D8000401039509F41395009303011093040197
:1000E80020910A01222319F02A9520930A01083E3B
:1000F80031F5133021F500271127009303011093E0
:1001080004010091000103950C33B8F00027009317
:1001180000010091010103950C3360F00027009362
:100128000101009102010395083108F000270093AE
:10013800020105C00093010102C0009300010F9164
:100148000FBF1F910F9118950F931F932F933F93F4
:10015800299A2A9A2B9A2C9A459A2091060130912D
:100168000701303019F0313011F016C001C00AC053
:10017800203029F0213021F0223019F046C016C075
:1001880022C036C0203029F0213021F0223019F069
:1001980054C044C048C04CC0203029F0213021F060
:1001A800223019F05EC04EC052C056C00091020104
:1001B80011270A3018F00A501395FBCF012FA0D051
:1001C8008BD0299853C0009102010A3010F00A50D0
:1001D800FCCF96D081D010910301209104012130E9
:1001E80020F021F4143F08F001C045982A983EC039
:1001F8000091010111270A3018F00A501395FBCF1E
:10020800012F7ED069D02B9831C0009101010A30AE
:1002180010F00A50FCCF74D05FD02C9800E070D05A
:100228005BD0299823C002E06BD056D02A981EC014
:1002380001E066D051D02B9819C001E061D04CD0B4
:100248002C9814C000E05CD047D029980FC006E075
:1002580057D042D02A980AC003E052D03DD02B98FC
:1002680005C000E04DD038D02C9800C000910601A0
:100278000395043008F00027009306013F912F9161
:100288001F910F91089506B10F7000950F70089592
:100298000F931F93F8DF102F10FF01C004C0002731
:1002A80000930B0116C000910A01002391F40091FC
:1002B8000B01002371F4009107010395033008F046
:1002C80000270093070101E000930B0104E100936C
:1002D8000A011F910F9108951F932F93102F1F73D9
:1002E800110F110F2BB12370212B2BB925B12E7FA4
:1002F800102F107409F0216025B92F911F910895CE
:100308000F70003089F0013089F0023089F0033035
:1003180089F0043089F0053089F0063089F007301B
:1003280089F0083089F012C000E4089509E70895BB
:1003380004E2089500E3089509E1089502E10895AB
:1003480002E0089508E7089500E0089508E1089597
:00000001FF
