:100000000C9434000C9451000C9451000C94510049
:100010000C9451000C9451000C9451000C9451001C
:100020000C9451000C9407030C9451000C94510053
:100030000C9451000C9451000C9451000C945100FC
:100040000C9451000C9451000C9451000C945100EC
:100050000C9451000C9451000C9451000C945100DC
:100060000C9451000C94510011241FBECFEFD8E026
:10007000DEBFCDBF13E0A0E0B1E0E2E6F8E002C0F1
:1000800005900D92A43DB107D9F723E0A4EDB3E0AC
:1000900001C01D92A73DB207E1F70E94DD010C945B
:1000A0002F040C94000080E480937C0087E8809308
:1000B0007A008FE080937E000895ECE7F0E0908175
:1000C000907F8F70892B8083EAE7F0E080818064E5
:1000D000808380917A0086FDFCCF8091780090919A
:1000E000790008951092C50087E68093C40088E1E6
:1000F0008093C10086E08093C20008959091C00073
:1001000095FFFCCF8093C6000895CF93DF93EC0159
:1001100003C00E947E00219688818111FACFDF9171
:10012000CF9108958091C0008823E4F78091C600A4
:1001300008950E9492008D30E1F38A30D1F3089542
:100140001F93CF93DF9300D000D000D0CDB7DEB7A0
:1001500010E00E9492008D3079F08A3069F01530FD
:10016000C0F7E1E0F0E0EC0FFD1FE10FF11D80832F
:100170000E947E001F5FEDCFE1E0F0E0EC0FFD1F7D
:10018000E10FF11D1082CE0101960E94D703269641
:100190000FB6F894DEBF0FBECDBFDF91CF911F9198
:1001A00008958AB1806E8AB98BB1806E8BB908953B
:1001B0008BB1806E8BB98091D403813041F018F0FF
:1001C000823049F008958BB18F7B8BB908958BB144
:1001D0008F778BB908958BB18F7D8BB908958CEF94
:1001E00091E00E9485008CE091E00E94850083E20E
:1001F00091E00E9485008CE091E00E94850085E3FB
:1002000091E00E94850083E491E00E94850081E5F1
:1002100091E00E9485008CEF91E00E948500809122
:10022000D403813069F018F08230B9F02AC08DE52E
:1002300091E00E94850083E791E00E94850021C043
:1002400089E991E00E9485008FEA91E00E94850093
:1002500086EC91E00E94850014C08CED91E00E9434
:10026000850080EF91E00E9485008FEF91E00E9471
:1002700085008EE092E00E9485008DE192E00E9470
:1002800085008CEF91E00E9485000895811524E09F
:10029000920710F08FEF93E09C01A8EDBEE00E9462
:1002A000C8032FEF33E040E050E00E94A603C901ED
:1002B00080559B4F0895CF93DF93C0E0D1E08881B4
:1002C00099810E94E5028A819B810E94F6028C81BD
:1002D0009D810E946A038E819F810E948803DF9125
:1002E000CF910895823091F018F4813031F029C017
:1002F0008330A9F08430E1F024C048E050E068E1A8
:1003000070E080E091E00E940D04089548E050E024
:1003100060E170E080E091E00E940D04089548E003
:1003200050E068E070E080E091E00E940D040895E4
:1003300048E050E060E070E080E091E00E940D0451
:1003400008958CE292E00E9485000895823091F039
:1003500018F4813031F029C08330A9F08430E1F005
:1003600024C048E050E068E170E080E091E00E9445
:10037000FD0320C048E050E060E170E080E091E0E3
:100380000E94FD0317C048E050E068E070E080E0A4
:1003900091E00E94FD030EC048E050E060E070E094
:1003A00080E091E00E94FD0305C08CE292E00E9493
:1003B000850008950E945B0108950E9453000E94E9
:1003C000CB020E9458030E9472000E94D1007894D0
:1003D0000E94D8008CEF91E00E94850082E492E0B8
:1003E0000E9485000E94EF008091C00088230CF0DD
:1003F0009DC00E949900803339F41092D4030E946A
:10040000D8000E94EF0092C0813341F481E08093D4
:10041000D4030E94D8000E94EF0088C0823341F4C8
:1004200082E08093D4030E94D8000E94EF007EC037
:100430009091D403923009F051C0813489F485E55C
:1004400092E00E9485000E94A00090930101809399
:1004500000010E94E50280E792E00E94850066C0EC
:10046000823489F488E892E00E9485000E94A0000E
:1004700090930301809302010E94F60283EA92E0C6
:100480000E94850053C0833489F48BEB92E00E9474
:1004900085000E94A00090930501809304010E94B2
:1004A0006A0386ED92E00E94850040C0843489F49E
:1004B0008EEE92E00E9485000E94A00090930701BA
:1004C000809306010E94880389E093E00E948500E2
:1004D0002DC081E293E00E94850028C09091D40352
:1004E000913021F5873471F48CE393E00E9485000C
:1004F0000E94990080530E94720185E693E00E9459
:10050000850014C0833471F48AE793E00E9485006B
:100510000E94990080530E94A60182EA93E00E9403
:10052000850004C086EB93E00E9485008091D4038F
:10053000811127C00E945D00EC0181E00E945D00F6
:100540006C0182E00E945D007C0183E00E945D00FE
:100550008C01CE010E944601C0E0D1E099838883DE
:10056000C6010E9446019B838A83C7010E944601FF
:100570009D838C83C8010E9446019F838E830E94C5
:100580005B012FEF89EF90E0215080409040E1F730
:1005900000C0000029CF84B1866084B982EA8093CC
:1005A00080008AE1809381008FE39CE9909387002B
:1005B0008093860088EB9BE090938900809388006D
:1005C00090938B0080938A000895803B24E09207EB
:1005D00010F480EB94E0893823E1920710F088E86A
:1005E00093E190938900809388000895803B24E0F4
:1005F000920710F480EB94E0893823E1920710F021
:1006000088E893E190938B0080938A0008951F926D
:100610000F920FB60F9211242F933F938F939F93B6
:1006200088E38093B2008091D5039091D603019620
:100630009093D6038093D5038091D5039091D603F0
:10064000019731F485B1886085B98BB188608BB929
:100650002091D5033091D60380910A0190910B012E
:100660002817390718F085B1877F85B92091D50300
:100670003091D6038091080190910901281739071C
:1006800018F08BB1877F8BB98091D5039091D603F9
:10069000883C910520F01092D6031092D5039F91CB
:1006A0008F913F912F910F900FBE0F901F90189533
:1006B00084B1886084B98AB188608AB91092B00028
:1006C00082E08093B10088E38093B20081E0809360
:1006D000700008959C013695279536952795369597
:1006E0002795ABE7B4E10E94C803969587958530BE
:1006F000910510F485E090E08F31910510F08EE1C6
:1007000090E0F89490930B0180930A0178940895F7
:100710009C01369527953695279536952795ABE715
:10072000B4E10E94C803969587958530910510F431
:1007300085E090E08F31910510F08EE190E0F89423
:10074000909309018093080178940895A1E21A2EEC
:10075000AA1BBB1BFD010DC0AA1FBB1FEE1FFF1F65
:10076000A217B307E407F50720F0A21BB30BE40BB5
:10077000F50B661F771F881F991F1A9469F76095FC
:100780007095809590959B01AC01BD01CF010895B6
:10079000A29FB001B39FC001A39F700D811D1124C2
:1007A000911DB29F700D811D1124911D0895FC01B2
:1007B00088279927E89421912032E9F3293010F015
:1007C0002E30C8F32B3241F02D3239F4689404C036
:1007D0000E94F503820F911D219120532A30C0F30E
:1007E0001EF4909581959F4F08957AE0979F902DE4
:1007F000879F802D910D11240895DC01CB01FC0110
:10080000F999FECF06C0F2BDE1BDF89A319600B469
:100810000D9241505040B8F70895DC01A40FB51F68
:100820004150504048F0CB01840F951F2E910E94FB
:100830001E0441505040D0F70895262FF999FECF5D
:1008400092BD81BDF89A019700B4021639F01FBA23
:1008500020BD0FB6F894FA9AF99A0FBE0895F8944D
:02086000FFCFC8
:10086200B80BB80BB80BB80B0F000F003D3D3D3D68
:100872003D3D3D3D3D3D3D3D3D3D3D3D3D3D3D3DA6
:100882000D0A002050524F594543544F20474152C0
:1008920052410D0A0030202D3E204D616E75616C73
:1008A2000D0A0031202D3E20454550524F4D0D0A74
:1008B2000032202D3E20554152540D0A004D6F64E6
:1008C2006F2041637475616C3A204D414E55414C25
:1008D2000D0A00506F74656E63696F6D6574726F97
:1008E2007320636F6E74726F6C616E206C6F732015
:1008F200736572766F730D0A004D6F646F204163EA
:100902007475616C3A20454550524F4D0D0A0047AF
:10091200202D3E2047756172646172206D656D6F96
:100922007269610D0A0043202D3E204361726761A6
:1009320072206D656D6F7269610D0A004D6F646F93
:100942002041637475616C3A20554152540D0A007E
:1009520041202D3E20536572766F20310D0A0042F0
:10096200202D3E20536572766F20320D0A004320FF
:100972002D3E20536572766F20330D0A0044202DE0
:100982003E20536572766F20340D0A000D0A4D65C4
:100992006D6F726961206E6F2076616C6964610DA2
:1009A2000A0053697374656D6120496E69636961F8
:1009B200646F0D0A000D0A496E67726573652076D1
:1009C200616C6F7220536572766F20313A0D0A00A6
:1009D2000D0A536572766F20312041637475616C24
:1009E200697A61646F0D0A000D0A496E6772657358
:1009F200652076616C6F7220536572766F20323A91
:100A02000D0A000D0A536572766F2032204163741D
:100A120075616C697A61646F0D0A000D0A496E672F
:100A2200726573652076616C6F7220536572766FA2
:100A320020333A0D0A000D0A536572766F20332077
:100A420041637475616C697A61646F0D0A000D0A05
:100A5200496E67726573652076616C6F72205365AB
:100A620072766F20343A0D0A000D0A536572766F62
:100A720020342041637475616C697A61646F0D0A78
:100A8200000D0A436F6D616E646F20554152542010
:100A92006E6F2076616C69646F0D0A000D0A5365F2
:100AA2006C656363696F6E65206D656D6F726961F8
:100AB2002070617261206775617264617220312DEC
:100AC200343A0D0A000D0A4D656D6F726961204757
:100AD200756172646164610D0A000D0A53656C658B
:100AE2006363696F6E65206D656D6F7269612070F9
:100AF2006172612063617267617220312D343A0D37
:100B02000A000D0A4D656D6F72696120436172675B
:100B12006164610D0A000D0A436F6D616E646F209E
:100B2200454550524F4D206E6F2076616C69646F5F
:040B32000D0A0000A8
:00000001FF
