:020000020000FC
:020000001CC022
:0200100085C0A9
:10003800A9C00FEF0DBF08E00EBF00270093000115
:10004800009302010093030100930401009305014A
:10005800009308010093090100930A010FE104B914
:100068000FE70AB904E007B903E008B9002705B9A2
:100078000BB908B10B7F08B906B10093010102E082
:100088000093680003E000936C0000E004BD02E008
:1000980004BD0BE907BD002706BD02E000936E0012
:1000A80005E005BD78940091020100FF04C00E7FB1
:1000B800009302010AD00091020101FF04C00D7FE4
:1000C8000093020109D012D0EECF009100010395F0
:1000D8000F7000930001089500910001002311F4AE
:1000E8000FE001C00A95009300010895F89400916B
:1000F80000010F7015B11C7E00FD116001FD12603A
:1001080002FD106115B928B12B7F03FD246028B9C1
:10011800789408950F931F932F933F9306B11091EE
:100128000101202F21270093010120FF12C000FDAB
:1001380010C02091030130910901231B253048F09C
:10014800309103013093090110910201116010935D
:10015800020121FF12C001FD10C02091030130915E
:100168000A01231B253048F03091030130930A011E
:10017800109102011260109302013F912F911F917B
:100188000F9118950F931F930FB70F9300910301C9
:100198000395009303010436E1F40027009303015B
:1001A8000091040103950A3049F4002710910501D4
:1001B8001395163009F411271093050100930401D3
:1001C800002F29D0009306010091050124D0009347
:1001D80007010091080111E001270093080100FDC3
:1001E80008C00091060111D015B1137F146015B92C
:1001F80007C00091070109D015B1137F186015B920
:100208000F910FBF1F910F9118950F771BB11078A1
:10021800102B1BB908950F700030E9F00130E9F098
:100228000230E9F00330E9F00430E9F00530E9F094
:100238000630E9F00730E9F00830E9F00930E9F074
:100248000A30E9F00B30E9F00C30E9F00D30E9F054
:100258000E30E9F01EC00FE3089506E008950BE59F
:1002680008950FE4089506E608950DE608950DE74C
:10027800089507E008950FE708950FE6089507E742
:1002880008950CE7089509E308950EE5089509E730
:06029800089501E708953E
:00000001FF
