:020000020000FC
:020000001CC022
:100038006EC00FEF0DBF08E00EBF0027009303014D
:100048000093040100270093000102E200930101DC
:100058000CE00093020101E000930D0101E0009320
:100068000E0100930501009306013D9A459A002769
:1000780000930701009308010FE00093090100278E
:1000880000930A01002700930B0100270093130136
:100098000027009314010027009315010CEF0AB9FB
:1000A8000FE104B90CEF0BB90FE105B9389839988D
:1000B8003A983B98409A419A429A439A509A58984B
:1000C80000E004BD02E004BD0AEF07BD002706BD3D
:1000D80002E000936E0003E005BD06E000930F0107
:1000E8000EE10093100100270093110100270093EF
:1000F80012013C9A4498789479D087D1B0D2009173
:100108000801002311F0589A01C05898F5CF0F93B1
:100118001F932F930FB70F930091030110910401C0
:10012800039509F41395009303011093040120919A
:100138000A01222319F02A9520930A01083EE1F5C5
:100148001330D1F500271127009303011093040100
:100158000091000103950C3368F10027009300011A
:100168000091010103950C3310F100270093010160
:100178000091020103950831B8F0002700930201AD
:1001880000910D010395003260F001E000930D012C
:1001980000910E0103950D3008F001E000930E0167
:1001A8000CC000930D0109C00093020106C0009322
:1001B800010103C00093000113C0009102011091D6
:1001C8000F01011769F40091010110911001011745
:1001D80039F400910001002319F401E000931201A1
:1001E8000F910FBF2F911F910F9118950F931F9388
:1001F8002F933F93299A2A9A2B9A2C9A459A0091E1
:10020800080100230AC01091030120910401233042
:1002180020F011F41C3208F0E6C02091060130915C
:100228000701303019F0313011F03EC001C00AC06A
:10023800203029F0213021F0223019F06EC03EC064
:100248004AC05EC0203029F0213021F0223019F058
:1002580092C06DC079C082C00F931F9300910E01A8
:100268000230C1F0043071F0063061F0093051F00D
:100278000B3041F010910D01103298F01FE11093EE
:100288000D010FC010910D011F3158F01EE11093A0
:100298000D0107C010910D011D3118F01CE11093DC
:1002A8000D011F910F910895203029F0213021F080
:1002B800223019F08EC069C075C07EC0009102015D
:1002C80011270A3018F00A501395FBCF012FEBD1F4
:1002D800D6D1299888C0009102010A3010F00A503E
:1002E800FCCFE1D1CCD11091030120910401213040
:1002F80020F021F4143F08F001C045982A9873C0F3
:100308000091010111270A3018F00A501395FBCF0C
:10031800012FC9D1B4D12B9866C0009101010A30D0
:1003280010F00A50FCCFBFD1AAD12C985CC0009124
:100338000D0111270A3018F00A501395FBCF012F31
:10034800B2D19DD129984FC000910D010A3010F00B
:100358000A50FCCFA8D193D12A9845C000910E012C
:1003680011270A3018F00A501395FBCF012F9BD1A3
:1003780086D12B9838C000910E010A3010F00A502F
:10038800FCCF91D17CD12C982EC000910F01112760
:100398000A3018F00A501395FBCF012F84D16FD182
:1003A800299821C000910F010A3010F00A50FCCFA3
:1003B8007AD165D12A9817C00091100111270A3007
:1003C80018F00A501395FBCF012F6DD158D12B98F7
:1003D8000AC0009110010A3010F00A50FCCF63D116
:1003E8004ED12C9800C0009106010395043008F006
:1003F8000027009306013F912F911F910F910895B7
:1004080006B10F7000950F7008950F931F932F93E7
:10041800F7DF102F112319F000270093120110FFA6
:1004280001C004C0002700930B011BC000910A0102
:100438000023B9F400910B01002399F400910801FD
:10044800002379F4009107010395033008F0002791
:1004580000C00093070101E000930B0104E1009341
:100468000A0113FF01C004C00027009313011BC039
:1004780000910A010023B1F400911301002399F4BB
:100488000091080121E0022700930801002319F0D8
:10049800222720930C0101E00093130104E100934B
:1004A8000A0101C0D8C011FF01C004C00027009391
:1004B80015011AC0009108010023B1F000910A014A
:1004C800002391F400911501002371F400910C01AF
:1004D8000395043008F0002700930C0101E0009315
:1004E800150104E100930A0112FF01C004C00027AE
:1004F80000931401B0C000910801002399F2009103
:100508000A01002379F600911401002359F620917D
:100518000701203019F0213011F017C001C009C0BF
:1005280020910C012030E9F02130E1F02230D9F09F
:1005380037C020910C01203029F0213021F02230E1
:1005480019F054C035C03EC047C020910C0120307E
:1005580029F0213021F0223019F06DC051C059C066
:1005680061C002C00BC013C0009102010A5012F40E
:1005780004E101C0065F0093020166C00091020118
:100588000395083108F00027009302015DC000912F
:100598000101065F0C3308F000270093010154C0E5
:1005A8000091010103950C3308F000270093010125
:1005B80000910D01065F003208F001E000930D0183
:1005C8004BDE42C000910D010395003208F001E0B6
:1005D80000930D0141DE38C000910E01065F0D3019
:1005E80008F001E000930E0137DE2EC000910E01E5
:1005F80003950D3008F001E000930E012DDE24C0B4
:1006080000910F01065F083108F0002700930F01E1
:100618001BC000910F010395083108F000270093D3
:100628000F0112C000911001065F0C3308F000277B
:100638000093100109C00091100103950C3308F0D4
:1006480000270093100100C001E00093140104E1A9
:1006580000930A0100C02F911F910F9108950F93E5
:100668001F9300911201002331F0109103011370C0
:1006780011F4449A01C044981F910F9108951F9353
:100688002F93102F1F73110F110F2BB12370212BD4
:100698002BB925B12E7F102F107409F0216025B9D0
:1006A8002F911F9108950F70003089F0013089F063
:1006B800023089F0033089F0043089F0053089F080
:1006C800063089F0073089F0083089F012C000E45C
:1006D800089509E7089504E2089500E3089509E1FB
:1006E800089502E1089502E0089508E7089500E0FA
:0606F800089508E10895D9
:00000001FF
