:100000000C9434000C9451000C9451000C94510049
:100010000C9451000C9451000C9451000C9451001C
:100020000C9451000C9451000C9451000C942C0130
:100030000C9451000C9451000C9451000C945100FC
:100040000C9451000C9451000C9451000C945100EC
:100050000C9451000C9451000C9451000C945100DC
:100060000C9451000C94510011241FBECFEFD8E026
:10007000DEBFCDBF11E0A0E0B1E0EEEFF2E002C0E4
:1000800005900D92A031B107D9F721E0A0E1B1E0D0
:1000900001C01D92A431B207E1F70E94FF000C9449
:1000A0007D010C9400008BB9089593B1892F817064
:1000B00090FD18C02FEF39EF90E021503040904074
:1000C000E1F700C0000018990EC0189BFECF2FEF7B
:1000D00039EF80E0215030408040E1F700C000005F
:1000E00081E0089580E0089593B1892F827091FD99
:1000F00018C02FEF39EF90E0215030409040E1F7E9
:1001000000C0000019990EC0199BFECF2FEF39EFE8
:1001100080E0215030408040E1F700C0000081E0E5
:10012000089580E008950E945500882329F0809169
:1001300011018F5F809311010E947400882329F0C0
:1001400080911101815080931101089580E4809382
:100150007C0087E880937A000895ECE7F0E08081E6
:10016000807F8083EAE7F0E08081806480838091F3
:100170007A0086FDFCCF80917800909179000895F7
:1001800084B18C6384B987B18E6087B987B180638D
:1001900087B985B18C6385B988B18E6088B988B11B
:1001A000806388B90895109280008BE0809381006D
:1001B00083EF91E0909389008093880082E08093A0
:1001C0006F0078940895982F92959F70E2E1F1E086
:1001D00090838F70818308958FEF8AB91BB884B1A3
:1001E0008C7F84B985B1836085B90E94A6000E9486
:1001F000C0000E94D30080E00E94E30008950E94A6
:10020000EC00C0E010E00E9493000E94AD009695C3
:10021000879596958795D82F0E94E30080911101CC
:100220008D1778F4C43128F081E0111180E0182F87
:10023000C0E0112319F08FEF8BB901C01BB8CF5F5D
:1002400004C00E945300C0E010E08FE19EE40197DB
:10025000F1F700C00000D7CF1F920F920FB60F9298
:1002600011242F933F934F938F939F93EF93FF937B
:1002700088B1806388B9E0911001F0E0EE5EFE4F36
:10028000E081F0E0E050FF4F808145B1982F9F70F2
:10029000292F30E0220F331F220F331F942F937C1E
:1002A000292B25B928B182958F70982F9770892FA7
:1002B00090E0880F991F922F917F892B88B98091A8
:1002C0001001811104C088B18F7E88B903C088B144
:1002D0008F7D88B99091100181E0911180E0809329
:1002E0001001FF91EF919F918F914F913F912F912D
:0E02F0000F900FBE0F901F901895F894FFCF3F
:1002FE004079243019120278001808034621060EA0
:00000001FF
