S00D00004C616243362E737265638F
S11300000C9434000C9449000C9449000C9449005D
S11300100C9449000C9449000C9449000C94490038
S11300200C9449000C9449000C9449000C94490028
S11300300C9449000C9449000C9449000C94490018
S11300400C9449000C9449000C9449000C94490008
S11300500C9449000C9449000C9449000C944900F8
S11300600C9449000C94490011241FBECFEFD8E032
S1130070DEBFCDBF11E0A0E0B1E0E6E7F2E002C0F0
S113008005900D92A83AB107D9F70E94AB000C94E1
S113009039010C9400001092C50087E68093C400D7
S11300A088E18093C10086E08093C200089580E4D3
S11300B080937C0087E880937A000895ECE7F0E071
S11300C09081907F8F70892B8083EAE7F0E08081B4
S11300D08064808380917A0086FDFCCF80917800D3
S11300E09091790008959091C00095FFFCCF809382
S11300F0C6000895CF93DF93EC0103C021960E94BC
S1130100730088818111FACFDF91CF910895CF9345
S1130110DF93CDB7DEB72A970FB6F894DEBF0FBED4
S1130120CDBF4AE0BE016F5F7F4F0E940401CE0144
S113013001960E947A002A960FB6F894DEBF0FBE8D
S1130140CDBFDF91CF9108958091C0008823E4F75B
S11301508091C60008958FEF84B915B80E944B00B2
S11301600E9457002FEF81EE94E021508040904090
S1130170E1F700C0000080E091E00E947A0084E290
S113018091E00E947A0089E391E00E947A0081E57F
S113019091E00E947A0083E691E00E947A000E9436
S11301A0A400C82F0E94730086E391E00E947A00A5
S11301B0C13381F480E00E945E00EC0187E791E0A6
S11301C00E947A00CE010E94870086E391E00E949B
S11301D07A0010C0C23371F481E991E00E947A0080
S11301E00E94A400C82F0E94730086E391E00E943D
S11301F07A00C5B92FEF83ED90E321508040904001
S1130200E1F700C00000BBCFBB274A3031F499238B
S113021022F4BDE2909581959F4F0C941001BB2769
S1130220FB015527AA27880F991FAA1FA41710F0AE
S1130230A41B83955051B9F7A05DAA3308F0A95DBA
S1130240A193009779F7B111B1931192CB010C945A
S11302502901DC01FC01672F71917723E1F73297C3
S113026004C07C916D9370836291AE17BF07C8F38D
S10902700895F894FFCF8D
S113027648656C6C6F20576F726C642C204A7561EC
S11302866E2044616E69656C2053616E646F76619D
S11302966C0D0A000D0A3D3D3D3D3D204D454E5534
S11302A6203D3D3D3D3D0D0A00312E204C656572D5
S11302B620506F74656E63696F6D6574726F0D0A95
S11302C600322E20456E76696172204153434949B6
S11302D60D0A0053656C656363696F6E65206F7004
S11302E663696F6E3A200056616C6F722064656CA8
S11302F620506F74656E63696F6D6574726F3A2012
S113030600496E677265736520756E20636172615C
S10B0316637465723A200000D3
S9030000FC
