:100000000C9434000C9446000C9446000C9446006A
:100010000C9446000C9446000C9446000C94460048
:100020000C9446000C9446000C9446000C94460038
:100030000C9446000C9446000C9427010C94460046
:100040000C9446000C9446000C9446000C94460018
:100050000C9446000C9446000C9446000C94460008
:100060000C9446000C94460011241FBECFEFD8E03C
:10007000DEBFCDBF21E0A0E0B1E001C01D92A23003
:10008000B207E1F70E9464000C947B010C9400001D
:1000900080E480937C0087E880937A000895ECE701
:1000A000F0E09081907F8F70892B8083EAE7F0E009
:1000B00080818064808380917A0086FDFCCF80916E
:1000C00078009091790008950E9448000E94B10044
:1000D0000E94F0000E94140180E00E944F007C0109
:1000E00081E00E944F008C0182E00E944F00EC01F1
:1000F000C7010E94DB007C01C8010E94DB008C016B
:10010000C7010E94D400C8010E94FA00CE01969552
:100110008795969587950E9424018FE39CE9019726
:10012000F1F700C00000D8CF209186003091870001
:100130002817390720F48091860090918700089550
:10014000883522E0920738F0813629E0920728F0BE
:1001500080E699E0089588E592E00895880F991F58
:10016000089584B1866084B982EA809380008AE130
:10017000809381008FE39CE99093870080938600B1
:100180008CED95E00E94AE009093890080938800EA
:1001900090938B0080938A0008950E94940090931E
:1001A00089008093880008950E94A0000E94AE00FC
:1001B0000E94CD000895811524E0920710F08FEF82
:1001C00093E09C01A8E0B7E00E946C012FEF33E0C0
:1001D00040E050E00E944A01C901885A9D4F0895AD
:1001E00084B1886084B983E88093B00087E080930D
:1001F000B1000895883522E0920710F488E592E076
:10020000813629E0920710F080E699E09C01AFEF7B
:10021000B0E00E946C0120E83EE340E050E00E9424
:100220004A012093B30008958AB180648AB982E0BC
:1002300084BD83E085BD89EF87BDEEE6F0E0808177
:1002400082608083789408958093000108951F92BE
:100250000F920FB60F9211248F939F9380910101FB
:100260008F5F8093010180910101811103C08BB1E7
:1002700080648BB99091010180910001981303C0B3
:100280008BB18F7B8BB99F918F910F900FBE0F9089
:100290001F901895A1E21A2EAA1BBB1BFD010DC0D1
:1002A000AA1FBB1FEE1FFF1FA217B307E407F50726
:1002B00020F0A21BB30BE40BF50B661F771F881F02
:1002C000991F1A9469F760957095809590959B0198
:1002D000AC01BD01CF010895A29FB001B39FC00141
:1002E000A39F700D811D1124911DB29F700D811D62
:0A02F0001124911D0895F894FFCF2A
:00000001FF
