:020000020000FC
:100000000FEF0DBF08E00EBF55985D9A56985E9AA7
:1000100052985A9A53985B9A0FE004B90FE007B9C7
:10002000549A579A3C9A3D9A249A00E00093000112
:1000300000E00093010105B908B90E94880011276A
:100040002227332744270E9428000E943000FBCF3C
:1000500019B115FF0E94380016FF0E944200089552
:1000600019B112FF0E944C0013FF0E945600089520
:100070000E94AD0029B125FF0E94600039B135FD15
:100080000895FCCF0E94AD0029B126FF0E946A00AE
:1000900039B136FD0895FCCF0E94AD0029B122FF91
:1000A0000E94740039B132FD0895FCCF0E94AD006A
:1000B00029B123FF0E947E0039B133FD0895FCCFA2
:1000C0000091000103950F700093000105B90E9493
:1000D00088000895009100010A950F7000930001B7
:1000E00005B90E94880008950091010103950F70E1
:1000F0000093010108B90E94880008950091010150
:100100000A950F700093010108B90E9488000895B4
:100110000091000150910101050F68B16F7C702FB3
:100120007370770F770F770F770F672B68B96BB105
:100130006F76702F7470770F770F672B702F787032
:10014000770F770F770F770F672B6BB965B16F7EDE
:10015000702F7071672B65B9089522E332E342E393
:0E0160004A95F1F73A95D9F72A95C1F7089517
:00000001FF
